{
  "contractName": "Upload",
  "abi": [
    {
      "inputs": [
        {
          "internalType": "address",
          "name": "",
          "type": "address"
        },
        {
          "internalType": "uint256",
          "name": "",
          "type": "uint256"
        }
      ],
      "name": "accessList",
      "outputs": [
        {
          "internalType": "address",
          "name": "user",
          "type": "address"
        },
        {
          "internalType": "bool",
          "name": "access",
          "type": "bool"
        }
      ],
      "stateMutability": "view",
      "type": "function",
      "constant": true
    },
    {
      "inputs": [
        {
          "internalType": "address",
          "name": "_user",
          "type": "address"
        },
        {
          "internalType": "string",
          "name": "url",
          "type": "string"
        }
      ],
      "name": "add",
      "outputs": [],
      "stateMutability": "nonpayable",
      "type": "function"
    },
    {
      "inputs": [
        {
          "internalType": "address",
          "name": "user",
          "type": "address"
        }
      ],
      "name": "allow",
      "outputs": [],
      "stateMutability": "nonpayable",
      "type": "function"
    },
    {
      "inputs": [
        {
          "internalType": "address",
          "name": "user",
          "type": "address"
        }
      ],
      "name": "disallow",
      "outputs": [],
      "stateMutability": "nonpayable",
      "type": "function"
    },
    {
      "inputs": [
        {
          "internalType": "address",
          "name": "_user",
          "type": "address"
        }
      ],
      "name": "display",
      "outputs": [
        {
          "internalType": "string[]",
          "name": "",
          "type": "string[]"
        }
      ],
      "stateMutability": "view",
      "type": "function",
      "constant": true
    },
    {
      "inputs": [],
      "name": "shareAccess",
      "outputs": [
        {
          "components": [
            {
              "internalType": "address",
              "name": "user",
              "type": "address"
            },
            {
              "internalType": "bool",
              "name": "access",
              "type": "bool"
            }
          ],
          "internalType": "struct Upload.Access[]",
          "name": "",
          "type": "tuple[]"
        }
      ],
      "stateMutability": "view",
      "type": "function",
      "constant": true
    }
  ],
  "bytecode": "0x608060405234801561001057600080fd5b506112ca806100206000396000f3fe608060405234801561001057600080fd5b50600436106100625760003560e01c806336d6da551461006757806370c2b41914610083578063a9ed9cb8146100b4578063bc8bef81146100d0578063eb39113f146100ee578063ff9913e81461011e575b600080fd5b610081600480360381019061007c9190610d20565b61013a565b005b61009d60048036038101906100989190610db6565b6101b9565b6040516100ab929190610e20565b60405180910390f35b6100ce60048036038101906100c99190610e49565b610223565b005b6100d8610445565b6040516100e59190610f72565b60405180910390f35b61010860048036038101906101039190610e49565b61054e565b60405161011591906110ef565b60405180910390f35b61013860048036038101906101339190610e49565b610764565b005b6000808473ffffffffffffffffffffffffffffffffffffffff1673ffffffffffffffffffffffffffffffffffffffff1681526020019081526020016000208282909180600181540180825580915050600190039060005260206000200160009091929091929091929091925091906101b3929190610bb0565b50505050565b600260205281600052604060002081815481106101d557600080fd5b90600052602060002001600091509150508060000160009054906101000a900473ffffffffffffffffffffffffffffffffffffffff16908060000160149054906101000a900460ff16905082565b6000600160003373ffffffffffffffffffffffffffffffffffffffff1673ffffffffffffffffffffffffffffffffffffffff16815260200190815260200160002060008373ffffffffffffffffffffffffffffffffffffffff1673ffffffffffffffffffffffffffffffffffffffff16815260200190815260200160002060006101000a81548160ff02191690831515021790555060005b600260003373ffffffffffffffffffffffffffffffffffffffff1673ffffffffffffffffffffffffffffffffffffffff16815260200190815260200160002080549050811015610441578173ffffffffffffffffffffffffffffffffffffffff16600260003373ffffffffffffffffffffffffffffffffffffffff1673ffffffffffffffffffffffffffffffffffffffff168152602001908152602001600020828154811061036d5761036c611111565b5b9060005260206000200160000160009054906101000a900473ffffffffffffffffffffffffffffffffffffffff1673ffffffffffffffffffffffffffffffffffffffff160361042e576000600260003373ffffffffffffffffffffffffffffffffffffffff1673ffffffffffffffffffffffffffffffffffffffff168152602001908152602001600020828154811061040957610408611111565b5b9060005260206000200160000160146101000a81548160ff0219169083151502179055505b80806104399061116f565b9150506102bb565b5050565b6060600260003373ffffffffffffffffffffffffffffffffffffffff1673ffffffffffffffffffffffffffffffffffffffff168152602001908152602001600020805480602002602001604051908101604052809291908181526020016000905b82821015610545578382906000526020600020016040518060400160405290816000820160009054906101000a900473ffffffffffffffffffffffffffffffffffffffff1673ffffffffffffffffffffffffffffffffffffffff1673ffffffffffffffffffffffffffffffffffffffff1681526020016000820160149054906101000a900460ff161515151581525050815260200190600101906104a6565b50505050905090565b60603373ffffffffffffffffffffffffffffffffffffffff168273ffffffffffffffffffffffffffffffffffffffff1614806106105750600160003373ffffffffffffffffffffffffffffffffffffffff1673ffffffffffffffffffffffffffffffffffffffff16815260200190815260200160002060008373ffffffffffffffffffffffffffffffffffffffff1673ffffffffffffffffffffffffffffffffffffffff16815260200190815260200160002060009054906101000a900460ff165b61064f576040517f08c379a000000000000000000000000000000000000000000000000000000000815260040161064690611214565b60405180910390fd5b6000803373ffffffffffffffffffffffffffffffffffffffff1673ffffffffffffffffffffffffffffffffffffffff168152602001908152602001600020805480602002602001604051908101604052809291908181526020016000905b828210156107595783829060005260206000200180546106cc90611263565b80601f01602080910402602001604051908101604052809291908181526020018280546106f890611263565b80156107455780601f1061071a57610100808354040283529160200191610745565b820191906000526020600020905b81548152906001019060200180831161072857829003601f168201915b5050505050815260200190600101906106ad565b505050509050919050565b60018060003373ffffffffffffffffffffffffffffffffffffffff1673ffffffffffffffffffffffffffffffffffffffff16815260200190815260200160002060008373ffffffffffffffffffffffffffffffffffffffff1673ffffffffffffffffffffffffffffffffffffffff16815260200190815260200160002060006101000a81548160ff02191690831515021790555060011515600360003373ffffffffffffffffffffffffffffffffffffffff1673ffffffffffffffffffffffffffffffffffffffff16815260200190815260200160002060008373ffffffffffffffffffffffffffffffffffffffff1673ffffffffffffffffffffffffffffffffffffffff16815260200190815260200160002060009054906101000a900460ff16151503610a1c5760005b600260003373ffffffffffffffffffffffffffffffffffffffff1673ffffffffffffffffffffffffffffffffffffffff16815260200190815260200160002080549050811015610a16578173ffffffffffffffffffffffffffffffffffffffff16600260003373ffffffffffffffffffffffffffffffffffffffff1673ffffffffffffffffffffffffffffffffffffffff168152602001908152602001600020828154811061094257610941611111565b5b9060005260206000200160000160009054906101000a900473ffffffffffffffffffffffffffffffffffffffff1673ffffffffffffffffffffffffffffffffffffffff1603610a03576001600260003373ffffffffffffffffffffffffffffffffffffffff1673ffffffffffffffffffffffffffffffffffffffff16815260200190815260200160002082815481106109de576109dd611111565b5b9060005260206000200160000160146101000a81548160ff0219169083151502179055505b8080610a0e9061116f565b915050610890565b50610bad565b600260003373ffffffffffffffffffffffffffffffffffffffff1673ffffffffffffffffffffffffffffffffffffffff16815260200190815260200160002060405180604001604052808373ffffffffffffffffffffffffffffffffffffffff168152602001600115158152509080600181540180825580915050600190039060005260206000200160009091909190915060008201518160000160006101000a81548173ffffffffffffffffffffffffffffffffffffffff021916908373ffffffffffffffffffffffffffffffffffffffff16021790555060208201518160000160146101000a81548160ff02191690831515021790555050506001600360003373ffffffffffffffffffffffffffffffffffffffff1673ffffffffffffffffffffffffffffffffffffffff16815260200190815260200160002060008373ffffffffffffffffffffffffffffffffffffffff1673ffffffffffffffffffffffffffffffffffffffff16815260200190815260200160002060006101000a81548160ff0219169083151502179055505b50565b828054610bbc90611263565b90600052602060002090601f016020900481019282610bde5760008555610c25565b82601f10610bf757803560ff1916838001178555610c25565b82800160010185558215610c25579182015b82811115610c24578235825591602001919060010190610c09565b5b509050610c329190610c36565b5090565b5b80821115610c4f576000816000905550600101610c37565b5090565b600080fd5b600080fd5b600073ffffffffffffffffffffffffffffffffffffffff82169050919050565b6000610c8882610c5d565b9050919050565b610c9881610c7d565b8114610ca357600080fd5b50565b600081359050610cb581610c8f565b92915050565b600080fd5b600080fd5b600080fd5b60008083601f840112610ce057610cdf610cbb565b5b8235905067ffffffffffffffff811115610cfd57610cfc610cc0565b5b602083019150836001820283011115610d1957610d18610cc5565b5b9250929050565b600080600060408486031215610d3957610d38610c53565b5b6000610d4786828701610ca6565b935050602084013567ffffffffffffffff811115610d6857610d67610c58565b5b610d7486828701610cca565b92509250509250925092565b6000819050919050565b610d9381610d80565b8114610d9e57600080fd5b50565b600081359050610db081610d8a565b92915050565b60008060408385031215610dcd57610dcc610c53565b5b6000610ddb85828601610ca6565b9250506020610dec85828601610da1565b9150509250929050565b610dff81610c7d565b82525050565b60008115159050919050565b610e1a81610e05565b82525050565b6000604082019050610e356000830185610df6565b610e426020830184610e11565b9392505050565b600060208284031215610e5f57610e5e610c53565b5b6000610e6d84828501610ca6565b91505092915050565b600081519050919050565b600082825260208201905092915050565b6000819050602082019050919050565b610eab81610c7d565b82525050565b610eba81610e05565b82525050565b604082016000820151610ed66000850182610ea2565b506020820151610ee96020850182610eb1565b50505050565b6000610efb8383610ec0565b60408301905092915050565b6000602082019050919050565b6000610f1f82610e76565b610f298185610e81565b9350610f3483610e92565b8060005b83811015610f65578151610f4c8882610eef565b9750610f5783610f07565b925050600181019050610f38565b5085935050505092915050565b60006020820190508181036000830152610f8c8184610f14565b905092915050565b600081519050919050565b600082825260208201905092915050565b6000819050602082019050919050565b600081519050919050565b600082825260208201905092915050565b60005b83811015610ffa578082015181840152602081019050610fdf565b83811115611009576000848401525b50505050565b6000601f19601f8301169050919050565b600061102b82610fc0565b6110358185610fcb565b9350611045818560208601610fdc565b61104e8161100f565b840191505092915050565b60006110658383611020565b905092915050565b6000602082019050919050565b600061108582610f94565b61108f8185610f9f565b9350836020820285016110a185610fb0565b8060005b858110156110dd57848403895281516110be8582611059565b94506110c98361106d565b925060208a019950506001810190506110a5565b50829750879550505050505092915050565b60006020820190508181036000830152611109818461107a565b905092915050565b7f4e487b7100000000000000000000000000000000000000000000000000000000600052603260045260246000fd5b7f4e487b7100000000000000000000000000000000000000000000000000000000600052601160045260246000fd5b600061117a82610d80565b91507fffffffffffffffffffffffffffffffffffffffffffffffffffffffffffffffff82036111ac576111ab611140565b5b600182019050919050565b600082825260208201905092915050565b7f596f7520646f6e27742068617665206163636573730000000000000000000000600082015250565b60006111fe6015836111b7565b9150611209826111c8565b602082019050919050565b6000602082019050818103600083015261122d816111f1565b9050919050565b7f4e487b7100000000000000000000000000000000000000000000000000000000600052602260045260246000fd5b6000600282049050600182168061127b57607f821691505b60208210810361128e5761128d611234565b5b5091905056fea264697066735822122039b4eaaf8bacc348ed4bdb0f3e135d305f841eda7af7e2efa1020b61c9b0545c64736f6c634300080d0033",
  "immutableReferences": {},
  "source": "pragma solidity >=0.4.22 <0.9.0;\r\n\r\ncontract Upload{\r\n    struct Access{\r\n        address user;\r\n        bool access;\r\n    }\r\n    mapping(address=>string[]) value;//toStoreURL\r\n    mapping(address=>mapping(address=>bool)) ownership;\r\n    mapping(address=>Access[])public accessList; //toGIveOwnership\r\n    mapping(address=>mapping(address=>bool)) previousData;\r\n    function add(address _user,string calldata url) external{\r\n        value[_user].push(url);\r\n    }\r\n    function allow(address user) external{\r\n        ownership[msg.sender][user]=true;\r\n        if(previousData[msg.sender][user]==true){\r\n            for(uint i=0;i<accessList[msg.sender].length;i++){\r\n                if(accessList[msg.sender][i].user==user){\r\n                    accessList[msg.sender][i].access=true;\r\n                }\r\n            }\r\n        }else{\r\n        accessList[msg.sender].push(Access(user,true));\r\n        previousData[msg.sender][user]=true;\r\n        }\r\n    }\r\n    function disallow(address user) external{\r\n        ownership[msg.sender][user]=false;\r\n        for(uint i=0;i<accessList[msg.sender].length;i++){\r\n            if(accessList[msg.sender][i].user==user){\r\n        accessList[msg.sender][i].access=false;\r\n    }\r\n    }\r\n    }\r\n    function display(address _user) external view returns(string[] memory){\r\n      require(_user==msg.sender || ownership[msg.sender][_user],\"You don't have access\");\r\n      return value[msg.sender];\r\n  }\r\n    function shareAccess() public view returns(Access[] memory){\r\n        return accessList[msg.sender];\r\n    }\r\n}",
  "sourcePath": "C:\\Users\\ASUS\\OneDrive\\Desktop\\samp_major\\backend\\smartcontracts\\contracts\\AccessControl.sol",
  "compiler": {
    "name": "solc",
    "version": "0.8.13+commit.abaa5c0e.Emscripten.clang"
  },
  "schemaVersion": "3.4.16",
  "updatedAt": "2024-04-12T16:00:42.173Z",
  "networkType": "ethereum",
  "devdoc": {
    "kind": "dev",
    "methods": {},
    "version": 1
  },
  "userdoc": {
    "kind": "user",
    "methods": {},
    "version": 1
  }
}